{
  "transaction": {
    "chainId": 1,
    "nonce": 3,
    "gasPrice": 1,
    "gasLimit": 25000,
    "to": "0xb94f5374fce5edbc8e2a8697c15331677e6ebf0b",
    "value": "0xa",
    "data": "0x5544",
    "accessList": [
      {
        "address": "0xf0f0f0f0f0f0f0f0f0f0f0f0f0f0f0f0f0f0f0f0",
        "storageKeys": [
          "0x0000000000000000000000000000000000000000000000000000000000000000",
          "0xffffffffffffffffffffffffffffffffffffffffffffffffffffffffffffffff"
        ]
      }
    ],
    "r": "0x43b4d0e8d59e8663c813ffa1bb99f020278a139f07c47f3858653071b3cec6b3",
    "s": "0x17047e844eef895a876778a828731a33b67863aea7b9591a0001651ee47322fa",
    "v": 0
  },
  "signed": "0x01f8bf0103018261a894b94f5374fce5edbc8e2a8697c15331677e6ebf0b0a825544f85bf85994f0f0f0f0f0f0f0f0f0f0f0f0f0f0f0f0f0f0f0f0f842a00000000000000000000000000000000000000000000000000000000000000000a0ffffffffffffffffffffffffffffffffffffffffffffffffffffffffffffffff80a017047e844eef895a876778a828731a33b67863aea7b9591a0001651ee47322faa043b4d0e8d59e8663c813ffa1bb99f020278a139f07c47f3858653071b3cec6b3",
  "hash": "0x13ab8b6371d8873405db20104705d7fecee2f9083f247250519e4b4c568b17fb",    
  "privateKey": "0x0000000000000000000000000000000000000000000000000000000000000001",
  "sender": "0x7e5f4552091a69125d5dfcb7b8c2659029395bdf",
  "forSigning": "0x01f87a0103018261a894b94f5374fce5edbc8e2a8697c15331677e6ebf0b0a825544f85994f0f0f0f0f0f0f0f0f0f0f0f0f0f0f0f0f0f0f0f0f842a00000000000000000000000000000000000000000000000000000000000000000a0ffffffffffffffffffffffffffffffffffffffffffffffffffffffffffffffff"
}